:020000040800F2
:10000000100A0020050100087B0E000825080008E2
:10001000790E000865070008C521000800000000EF
:10002000000000000000000000000000A919000806
:10003000670700080000000049130008151B0008AE
:100040001F0100081F0100081F0100088116000899
:100050001F0100081F0100081F0100081F01000800
:100060001F0100081F0100081F0100081F010008F0
:100070001F0100081F0100081F0100081F010008E0
:100080001F0100081F0100081F0100081F010008D0
:100090001F0100081F0100081F0100081F010008C0
:1000A0001F0100081F0100081F0100081F010008B0
:1000B0001F0100081F0100081F0100081F010008A0
:1000C0001F0100081F0100081F0100081F01000890
:1000D0001F010008691D00081F010008851E000897
:1000E0001F0100081F0100081F010008DFF810D0E1
:1000F00000F020FA00480047CD2D0008AFF3008043
:10010000100A00200648804706480047FEE7FEE741
:10011000FEE7FEE7FEE7FEE7FEE7FEE7FEE7FEE7B7
:10012000451B0008ED000008421C10F8011B0029C7
:10013000FBD1801A704730B50B46014600202022C3
:10014000012409E021FA02F59D4205D303FA02F5E4
:10015000491B04FA02F52844151EA2F10102F1DC44
:1001600030BD2DE9F05F0546002092469B4688464B
:100170000646814640241BE0284641464746224623
:1001800000F0F9F953465A46C01A914110D311466E
:100190001846224600F0E0F92D1A67EB01084F4699
:1001A00022460120002100F0D7F917EB00094E414B
:1001B000201EA4F10104DFDC484631462A464346AE
:1001C000BDE8F09F2DE9FE4F804681EA0300C00F95
:1001D0000C46009021F0004123F00045B8EB0200EE
:1001E000A94105D24046214690461C460B46024690
:1001F00023F00040104347D0270DC7F30A00C3F394
:100200000A510290401A019040286BDAC3F31300A0
:1002100040F4801B0098924620B10023D2EB030AE1
:1002200063EB0B0B01985946C0F14002504600F0B9
:1002300093F906460D4650465946019A00F0ABF92F
:1002400010EB08006141002487EA115284EAE77349
:100250001A4340D0009A62B3019A012A4FEA07522A
:1002600015DC001B61EB02014FF0004202EA07526D
:10027000CDE90042001C41F5801132462B4600F0CA
:10028000ABF903B0BDE8F08F40462146F9E7001B0B
:1002900061EB0201001C41F5801300185B4120183E
:1002A000A2F5001747EB030140EAD570B6196D417E
:1002B00011E06D084FEA360645EAC0754FEA07526D
:1002C000001B61EB0201001C41F5801149084FEA57
:1002D00030000019514132462B4603B0BDE8F04FC3
:1002E00000F06BB90098012240000023D0EB02021D
:1002F00063EBE073009821464FEAE074B8EB00002E
:1003000061EB0401E9E783F000435BE781F0004122
:1003100058E72DE9FE4F81EA030404F0004421F080
:10032000004100944FF0000B23F0004350EA010419
:100330005ED052EA03045BD0C3F30A54C1F30A55FA
:100340002C44A4F2F3340194A0FB0254C1F3130132
:1003500041F48011C3F3130343F4801301FB0244FF
:1003600000FB034E840A970A44EA815447EA835704
:10037000A4FB076802958D0A05FB07854FEA932CBD
:1003800004FB0C542705029D4FEA065847EA16372E
:10039000B5EB08056EEB070C870E920E47EA811746
:1003A00042EA8312A7FB0201B6EB0B0164EB0004E7
:1003B0002B0D43EA0C335E1844EB1C50DA465146D1
:1003C000E7FB0201C5F313044FEA0B3343EA14536E
:1003D0004FEA0432019C43EA0603A4F10C040294A0
:1003E000009CCDE900B400F0F7F803B0BDE8F08F51
:1003F00000200146F9E72DE9F04D81EA030404F0FD
:10040000004B21F0004514464FF0000A23F0004154
:1004100050EA050220D054EA01021DD0C5F30A5764
:100420000246C5F31303C1F31300C1F30A5640F4A7
:10043000801543F48013A7EB0608101BD64608F27C
:10044000FD3873EB050002D308F1010801E09218B2
:100450005B41B8F1000F03DA00200146BDE8F08DE2
:1004600000204FF48011064684460EE0171B73EB04
:10047000050705D3121B63EB050306434CEA010C89
:1004800049084FEA300092185B4150EA0107EDD16C
:1004900052EA030012D082EA040083EA050108430D
:1004A00005D0101BAB4106D20122002306E000223A
:1004B0004FF0004302E06FF0010253101AEB060008
:1004C0004CEB085110EB0A0041EB0B01BDE8F04D7D
:1004D00000F073B8C1F30A52C1F3130140F2FF33C5
:1004E00041F480119A4202DA00200146704740F23E
:1004F00033439A42A2F2334202DC524200F03BB84C
:1005000000F02AB830B5041E71F1000404DB4FF08E
:100510000044404264EB0101141E73F1000405DB4A
:100520001C464FF00043524263EB0403994208BF5C
:10053000904230BD064C074D06E0E06840F00103F4
:1005400094E8070098471034AC42F6D3FFF7D2FD89
:10055000445A0008645A0008202A04DB203A00FAB2
:1005600002F1002070479140C2F1200320FA03F30A
:10057000194390407047202A04DB203A21FA02F008
:100580000021704721FA02F3D040C2F120029140CD
:10059000084319467047202A06DBCB17203A41FA58
:1005A00002F043EAE07306E041FA02F3D040C2F100
:1005B0002002914008431946704710B5141E73F18C
:1005C000000408DA401C41F1000192185B411A4313
:1005D00001D120F0010010BD2DE9F04D92469B465F
:1005E00011B1B1FA81F202E0B0FA80F22032904605
:1005F000FFF7B2FF04460F4640EA0A0041EA0B014A
:1006000053465A46084313D0114653EA010019D005
:10061000C8F140025046FFF7AEFF05460E46504671
:1006200059464246FFF798FF084305D0012004E0F1
:1006300020463946BDE8F08D0020054346EAE076C5
:100640002C4337430A986305E40AA0EB0800002214
:10065000FD0A44EA47540A3002D500200146E9E782
:10066000010510196941DDE9084500196941BDE836
:10067000F04DA2E710B547F6FB74204600F013F8E2
:1006800036280AD03621204600F02FF8204600F008
:100690000AF8362803D0012010BD002010BD00202C
:1006A00010BD00F0D5B810B5044600F061F9A020E7
:1006B00000F034F900F084F9200A00F02FF900F07E
:1006C0007FF9E0B200F02AF900F07AF900F050F971
:1006D000A12000F023F900F073F9002000F0F0F8F9
:1006E000044600F059F9204610BD70B504460D4689
:1006F00000F03EF9A02000F011F900F061F9200AA5
:1007000000F00CF900F05CF9E0B200F007F900F03D
:1007100057F9284600F002F900F052F900F03CF9D0
:10072000BDE870400A2002F0B1BA10B5012000F017
:1007300045FEBDE81040002000F040BE08B503496A
:10074000084400900098008808BD0000006C00403C
:1007500008B5034A104400900098016008BD0000ED
:10076000006C0040FEE770472DE9F0410022CC7894
:1007700004F00F03E40601D58C7823430C784FF086
:100780000F0714F0FF0F4FF0010C1CD005680CFA96
:1007900002F40E882640A64211D1960007FA06F808
:1007A00025EA080503FA06F848EA0505CE78282E5A
:1007B00002D0482E02D002E0446100E00461521CE5
:1007C000082AE4D305600A88FF2A1ED9456800225A
:1007D00002F108060CFA06F40E882640A64210D153
:1007E000960007FA06F825EA080503FA06F848EA2B
:1007F0000505CE78282E00D14461CE78482E00D150
:100800000461521C082AE3D34560BDE8F08102462A
:10081000002092680A4200D0012070474161704771
:1008200001617047FEE7000070B5084C00252560A7
:1008300001F0A8F86560022002F042FA0120206071
:10084000052002F03DFA256070BD0000988121422C
:1008500038B50121082000F095FD4020ADF80000DA
:1008600003208DF8020010208DF80300084C694623
:100870002046FFF779FF8021ADF800106946204639
:10088000FFF772FF034801210160416038BD00009D
:10089000000C01409881214270B5084C002525606C
:1008A00001F070F801266660022002F009FA266065
:1008B000052002F005FA256070BD000098812142F4
:1008C0002DE9F0478146002401F04EF80025124E34
:1008D00000274FF00108C6F89871022002F0F0F9E5
:1008E000C6F898816006040ED6F81C0108B1641C95
:1008F000E4B2012002F0E4F96D1CEDB2082DEAD358
:10090000B9F1000F04D0FFF78FFF2046BDE8F08754
:10091000FFF7C2FFF9E70000008021422DE9F04116
:10092000054601F02FF8114E4FF00008C6F89881E7
:1009300000240127280602D5C6F89C7101E0C6F8FC
:100940009C816806050E022002F0BAF9C6F898717B
:10095000022002F0B5F9C6F89881022002F0B0F941
:10096000641CE4B2082CE5D3BDE8F081008021428C
:1009700070B501F007F8074C012060602060052089
:1009800002F09EF900256560062002F099F92560C5
:1009900070BD00009881214270B500F0F3FF074C54
:1009A00000202060606001252560062002F088F9A3
:1009B0006560BDE87040062002F082B9988121424E
:1009C00070B500240E4D0126C5F89C61012002F08F
:1009D00077F900F0C9FFC5F89861012002F070F9BD
:1009E00007E0641CE4B2FA2C03D9FFF7D5FF01201D
:1009F00070BDD5F81C010028F3D1C5F8980170BD71
:100A000000802142810701D0002070476421B0FBA3
:100A1000F1F201FB120109B1012070474FF4C871D6
:100A2000B0FBF1F201FB120008B100207047012079
:100A30007047000038B50121082000F0A3FC012117
:100A4000082000F09FFC0121042000F09BFC012104
:100A5000042000F097FC0121042000F093FC012108
:100A6000042000F08FFC0121042000F08BFC012108
:100A7000042000F087FC0220ADF8000010248DF85F
:100A8000034003208DF802001C4D69462846FFF7FD
:100A90006BFE0121ADF8001069462846FFF764FEA1
:100AA0008020ADF80000164D69462846FFF75CFE31
:100AB0004021ADF8001069462846FFF755FE202179
:100AC000ADF8001028218DF8031069462846FFF77D
:100AD0004BFEADF8004069462846FFF745FE082169
:100AE000ADF8001069462846FFF73EFE0421ADF838
:100AF000001069462846FFF737FE38BD000C01405C
:100B0000000801402DE9F0470024CF4F022138466C
:100B1000FFF786FE01213846FFF782FEDFF82C93AF
:100B200080214846FFF77CFE40214846FFF778FECB
:100B300020214846FFF76BFE054610214846FFF787
:100B400066FE054308214846FFF761FE0543042180
:100B50004846FFF75CFE05433DD0052002F096F8BD
:100B600020214846FFF753FE054610214846FFF76F
:100B70004EFE054308214846FFF749FE0543042180
:100B80004846FFF744FE054328D002213846FFF7C8
:100B900047FE01213846FFF741FE80214846FFF716
:100BA0003DFE40214846FFF739FE20214846FFF729
:100BB0002EFE064610214846FFF729FE80460821F2
:100BC0004846FFF724FE054604214846FFF71FFE6E
:100BD000012E05D00AE00020BDE8F0870020FBE7E9
:100BE000B8F1000F02D10DB900B901242EB9B8F146
:100BF000010F02D10DB900B9022456EA080603D14B
:100C0000012D01D100B903242E4302D1012800D1C6
:100C100004244E4620213046FFF7F9FD05461021F9
:100C20003046FFF7F4FD054308213046FFF7EFFD9E
:100C3000054304213046FFF7EAFD0543EAD10221CE
:100C40003846FFF7EBFD01213846FFF7E9FD80212B
:100C50003046FFF7E3FD40213046FFF7DFFD20215E
:100C60003046FFF7D4FD804610213046FFF7CFFD18
:100C7000814608213046FFF7CAFD0546042130466B
:100C8000FFF7C5FDB8F1010F05D1B9F1000F02D191
:100C90000DB900B90524B8F1000F05D1B9F1010F64
:100CA00002D10DB900B9062458EA090803D1012D73
:100CB00001D100B9072458EA050802D1012800D162
:100CC000082420213046FFF7A2FD054610213046BA
:100CD000FFF79DFD054308213046FFF798FD0543CA
:100CE00004213046FFF793FD0543EAD1022138463F
:100CF000FFF794FD01213846FFF790FD8021304633
:100D0000FFF78EFD40213046FFF788FD2021304659
:100D1000FFF77DFD804610213046FFF778FD8146C4
:100D200008213046FFF773FD054604213046FFF7E2
:100D30006EFDB8F1010F05D1B9F1000F02D10DB967
:100D400000B90924B8F1000F05D1B9F1010F02D1A2
:100D50000DB900B90A2458EA090803D1012D01D1BF
:100D600000B90B2458EA050802D1012800D10C244F
:100D700020213046FFF74BFD054610213046FFF796
:100D800046FD054308213046FFF741FD0543042198
:100D90003046FFF73CFD0543EAD102213846FFF714
:100DA0003DFD01213846FFF739FD80213046FFF730
:100DB00035FD40213046FFF733FD20213046FFF757
:100DC00026FD804610213046FFF721FD0746082109
:100DD0003046FFF71CFD054604213046FFF717FD9E
:100DE000B8F1010F03D117B90DB900B90D24B8F14D
:100DF000000F04D1012F02D10DB900B90E2458EA19
:100E0000070803D1012D01D100B90F2458EA0508C4
:100E100002D1012800D1102420213046FFF7F7FC31
:100E2000054610213046FFF7F2FC05430821304605
:100E3000FFF7EDFC054304213046FFF7E8FC0543CE
:100E4000EAD12046C8E60000000C0140000801403D
:100E500010B5BD218C07204600F036FF41F2081086
:100E600001F02EFF0021204600F02EFFBDE81040CB
:100E700041F26C1001F024BFFEE7704770B50F23FC
:100E8000C27801260178002A1ED0144A126802F4A2
:100E9000E062C2F5E062120AC2F10404D340457870
:100EA000A54082781A402A43120101F1E02181F81D
:100EB0000024007800F01F018E404009800000F1FE
:100EC000E020C0F8006170BD01F01F0086404809B5
:100ED000800000F1E020C0F8806170BD0CED00E002
:100EE0000249084302490860704700000000FA0503
:100EF0000CED00E02DE9F04781460F469046FFF7E4
:100F0000A7FF484600F079FD6FEA0904E0B200F05F
:100F100074FD384600F071FDFD43E8B200F06DFD50
:100F2000404600F06AFD6FEA0806F0B200F065FD89
:100F300000F0CEFDFFF78CFF484600F05EFDE0B20A
:100F400000F05BFD384600F058FDE8B200F055FDBA
:100F5000404600F052FDF0B200F04FFDBDE8F04712
:100F600000F0B6BD30B40021084B0022002003EB96
:100F7000C0046254401CC0B28028F8D3491CC9B2D6
:100F80000829F3D330BC00F08DB800004E000020DB
:100F900010B57F2813D83F2911D80723A3EBD1031D
:100FA000DBB201F00701C1F107040121A140C9B280
:100FB000054C04EBC0001AB1C25C0A43C25410BD18
:100FC000C25C8A43C25410BD4E00002010B5FFF72A
:100FD0003FFC0021AE2000F0ABF90021D52000F04D
:100FE000A7F90021502000F0A3F90021A82000F06B
:100FF0009FF900213F2000F09BF90021D32000F051
:1010000097F90021084600F093F90021402000F0F4
:101010008FF900218D2000F08BF90021142000F0C1
:1010200087F90021202000F083F90021022000F040
:101030007FF90021A12000F07BF90021C02000F001
:1010400077F90021DA2000F073F90021122000F076
:101050006FF90021812000F06BF90021EF2000F0F2
:1010600067F90021D92000F063F90021F12000F098
:101070005FF90021DB2000F05BF90021302000F057
:1010800057F90021A42000F053F90021A62000F018
:101090004FF90021AF2000F04BF9BDE81040FFF7F9
:1010A00061BF000070B507250E4E05F1B000C0B25B
:1010B000002100F03DF90021084600F039F9002137
:1010C000102000F035F9002406EBC4000121405D3A
:1010D00000F02EF9641C802CF6DB6D1E002DE4DA86
:1010E00070BD00004E0000202DE9F84F83460E46EB
:1010F0001F46B246780701D0012000E0002000EB37
:10110000D70079084843C0B20090203A02F0FF09A6
:10111000002541E00C2F13D0102F18D0182F3ED1EE
:10112000204909EBC90001EB8000445D4FF0000845
:10113000200611D5314658460A9AFFF729FF12E0DA
:10114000194909EB490001EB8000445DEEE71748BF
:1011500000EB0910445DE9E70A9890B1002231469E
:101160005846FFF715FF6006040E761CF6B2A6EB94
:101170000A00B84207D156460BF1010B0BF0FF0BEA
:1011800008E00122EBE708F1010808F0FF08B8F1D8
:10119000080FCDD36D1CEDB200988542BAD3BDE8DF
:1011A000F88F00003C4A0008D83F00084C44000873
:1011B0002DE9F84F83460F461C46BA46600701D01A
:1011C000012000E0002000EBD4006043C0B200909A
:1011D0000C2C03D0102C01D0182C3FD10026204815
:1011E00000EB421937E00C2C0FD0102C10D0182C2B
:1011F00034D119F806504FF0000828060BD53946AF
:1012000058460A9AFFF7C4FE0CE019F80650F2E7B8
:1012100019F80650EFE70A9890B10022394658466F
:10122000FFF7B6FE6806050E7F1CFFB2A7EB0A00AB
:10123000A04207D157460BF1010B0BF0FF0B08E062
:101240000122EBE708F1010808F0FF08B8F1080FE8
:10125000D3D3761CF6B200988642C4D3BDE8F88F8B
:10126000985700082DE9FF4F81B08046DDF838B06F
:1012700092461D46002600244FF001094FEA5B0705
:101280001FE0281B401EC1B20A2002F049FEBAFB33
:10129000F0F00A21B0FBF1F201FB120026B9691E41
:1012A0008C4201DA90B101263030C2B207FB0480D3
:1012B000C0B25B46CDF800900299FFF715FF641CA1
:1012C000E4B2AC42DDD305B0BDE8F08F07FB04808B
:1012D000C0B25B463022CDF800900299FFF704FFC0
:1012E000EDE7F8B504460F4615461E461BE0802084
:1012F000A0EB5600A04202D20024B819C7B2C6F132
:101300004000B84203DA00242746FFF72BFE0120F5
:1013100000902A78334639462046FFF7E5FE04EB75
:101320005600C4B26D1C287820385E28DFD9F8BD7D
:10133000002901D002F039BE02F020BE0149086246
:101340007047000000000E4270470000054A002967
:1013500003D0D1690143D1617047D1698143D16123
:101360007047000000100240054A002903D01169AF
:101370000143116170471169814311617047000099
:1013800000100240054A002903D091690143916190
:1013900070479169814391617047000000100240DD
:1013A000054A002903D0D1680143D1607047D16854
:1013B0008143D1607047000000100240014908607D
:1013C000704700004004424210B5264A516801F0BF
:1013D0000C01254B002927D0042927D0082927D024
:1013E0000360516801F0F0010909204B5C5C016861
:1013F000E1404160546804F4E064240A1C5D21FA71
:1014000004F48460546804F46054E40A1B5DD94019
:10141000C160526802F44042920B144B1B1F9A5C4D
:10142000B1FBF2F1016110BD0360DAE70360D8E7B8
:10143000516801F47011536803F48033022404EB03
:10144000914133B153689B0307D5094B5943016060
:10145000C7E7074B59430160C3E7034B594301609A
:10146000BFE700000010024000127A001E000020BA
:1014700000093D00034600205909094A01290AD004
:1014800002290AD0516A03F01F02012393400B4244
:1014900000D0012070471168F5E7116AF3E70000FA
:1014A00000100240084900220A7001F82029012892
:1014B00005D0042802D1052081F8200070470120C2
:1014C00081F82000704700002010024001490860A8
:1014D000704700003C04424202490A6A02430A6221
:1014E000704700000010024002490A8882430A80C7
:1014F00070470000042800400248018841F01001B4
:1015000001807047042800400248018821F0100142
:1015100001807047042800402DE9F04700F06AF888
:101520000646304FB6FBF7F32F48304D01889942FD
:1015300031D0038040F2B2744FF4B7784FF4B679EB
:101540000FE02046FFF75EFA38B1434502D3A3F51A
:10155000B77304E0641CA4B205E0A3F26D13641C2D
:10156000A4B24B45EDD8AC800024DFF884800CE0B9
:10157000A888FFF747FA08B1012C2FD018F804000B
:10158000984204D81B1A641CA4B21C2BF0D2641C11
:10159000AC715B1CEB71B6FBF7F007FB10604FF40E
:1015A0006161B0FBF1F22A70B0FBF1F201FB1203B2
:1015B0003C22B3FBF2F36B70B0FBF1F301FB1300C1
:1015C000B0FBF2F102FB1100A870EA79A979A888B2
:1015D00000F02AF828720020BDE8F0871D2BD6D332
:1015E0001D3BD0E7805101002E0000204E0400205A
:1015F000385A0008034800880249091F098840EA50
:10160000014070471C28004006490988C2B21140B9
:10161000044A121F1288024202D009B10120704709
:10162000002070470428004030B56424B0FBF4F378
:10163000DBB2B0FBF4F504FB1500032909D2401E10
:10164000C0B2012902D0022902D002E00D2100E03F
:101650000E21491C1A2461430A24B1FBF4F19C08B1
:101660005B4204EB4303034403EB90000844104443
:10167000401EC0B20721B0FBF1F201FB120030BDE9
:101680003EB50120FFF7C0FF204C18B3FFF744FF21
:1016900010231FA230215020FFF723FE10231CA28D
:1016A00030216820FFF71DFE10250095A278022347
:1016B00030217020FFF7D6FD00956278022330219B
:1016C0005820FFF7CFFD00952278022330214020DB
:1016D000FFF7C8FD0220FFF797FF80B10220FFF758
:1016E00003FFFFF719FF6178A0782278CDE9002188
:1016F0000290E379A279A18806A000F065FD05209B
:10170000FFF7F2FEBDE83E4000F01AB94E0400209B
:101710003A000000416C61726D2054696D653A2594
:10172000642D25642D25642025643A25643A2564BA
:101730000D0A0000054A002903D0118801431180D9
:1017400070471188814311807047000000280040D5
:101750007CB5002401214FF0C050FFF7F7FD0120B8
:10176000FFF7ECFD0420FEF7E9FF4AF2A005A842CE
:101770003FD0FEF7DAFF0120FFF794FE04E0641C7F
:10178000E4B20A2001F082FA4120FFF773FE08B9A3
:10179000FA2CF4D3FA2C01D301207CBD4FF48070D5
:1017A000FFF79AFE0120FFF791FE00F0C9F800F064
:1017B000CFF801210846FFF7BDFF00F0C1F8FFF7A1
:1017C0009BFE47F6FF7000F0ABF800F0B9F8372049
:1017D0002221CDE9001011231222082140F2E770E6
:1017E00000F026F8FFF790FE29460420FEF7B0FF30
:1017F00007E000F0ADF801210846FFF79BFF00F07D
:101800009FF800F004F8FFF787FE00207CBD08B5C4
:1018100003208DF8000000208DF801008DF80200F3
:1018200001208DF803006846FFF728FB08BD000083
:101830002DE9F05F0646DDF828A089469046002491
:10184000A6F2B270822802D30120BDE8F09F40F2D8
:10185000B275274FDFF89CB008E02846FFF7D2F8B2
:1018600008B13C4400E05C446D1CADB2B542F4D319
:10187000A9F1010909F0FF070025DFF87C90DFF8E6
:101880007CB00FE019F8050040F2A321484304EBB7
:10189000C0143046FFF7B6F810B1012D00D15C44FA
:1018A0006D1CADB2BD42EDD3A8F1010840F2A320FA
:1018B00008FB00F804EBC810C3EB4311C1EB032194
:1018C00000EB0110CAEB0A1100EB81000B994418E0
:1018D00001214FF0C050FFF739FD0120FFF72EFD29
:1018E000204600F00DF800F02BF80020ADE70000D6
:1018F0000085E2018033E101385A0008805101007F
:1019000000B50246FFF7F8FD0449100C0880081DD9
:1019100002805DF804EBFFF7F7BD000018280040D7
:1019200000B50246FFF7E8FD0449C2F30340088012
:10193000081D02805DF804EBFFF7E6BD08280040B3
:10194000024801888906FCD5704700000428004041
:101950000448018821F00801018001880907FCD5AD
:10196000704700000428004008B58020ADF8000052
:1019700048208DF8030069460148FEF7F5FE08BDD2
:10198000000C014008B58020ADF8000003208DF860
:10199000020010208DF8030069460248FEF7E4FEBD
:1019A00008BD0000000C0140704710B5BD218C0738
:1019B000204600F089F94FF4EF7001F081F9002121
:1019C000204600F081F9BDE810404FF4167001F098
:1019D00077B910B5BD218C07204600F075F94FF49A
:1019E000EF7001F06DF90021204600F06DF9BDE8BF
:1019F000104040F2A46001F063B970B505460724B9
:101A0000012606FA04F1294202D0FFF7E2FF01E0C5
:101A1000FFF7CBFF641E002CF3DA70BDAFF300803C
:101A20000CB50022019200922748016841F48031F0
:101A300001604FF4A063016801F400310091019945
:101A4000491C0191009911B901999942F3D101689A
:101A5000890302D50121009100E00092009901293B
:101A600030D11A490A6842F010020A600A6822F06E
:101A700003020A600A6842F002020A60416841609B
:101A800041684160416841F480614160416821F4EE
:101A90007C114160416841F4E8114160016841F006
:101AA0008071016001688901FCD5416821F0030162
:101AB0004160416841F0020141604168C1F3810128
:101AC0000229FAD10CBD00000010024000200240A3
:101AD00010B5BD218C07204600F0F6F840F2DD106D
:101AE00001F0EEF80021204600F0EEF8BDE81040CD
:101AF00041F29D4001F0E4B84FF0E021042804D009
:101B0000086920F0040008617047086940F004008B
:101B1000086170477047000010B504466FF004007C
:101B2000FFF7EAFF0649E008087000EB4002C2EB4D
:101B3000C0104FF6FF7202EAC000488010BD0000DE
:101B40003200002010B50F48016841F0010101602A
:101B500041680D4A1140416001680C4A1140016022
:101B6000016821F480210160416821F4FE01416097
:101B70004FF41F018160FFF751FF05494FF00060EE
:101B8000086010BD001002400000FFF8FFFFF6FEE5
:101B900008ED00E0002904D0018841F00101018036
:101BA0007047018821F001010180704770B5028CF7
:101BB00022F010020284028C8388048B24F4E04417
:101BC00024F440760D884FF6FF7404EA052535436A
:101BD00022F020020E8904EA061616434A8804EA17
:101BE00002123243114EB04202D0114EB04217D110
:101BF00022F080024E8904EA0616164326F04006BB
:101C00008A8804EA0212324323F4806323F40063D7
:101C10008E8904EA86061E43CB8904EA8303334394
:101C200083800583C9880187028470BD002C014030
:101C300000340140028B22F400624FF6FF7303EA86
:101C4000012111430183704730B589B00121084655
:101C5000FFF77CFB01210520FFF794FB0220ADF884
:101C6000040018208DF8070003208DF8060001A954
:101C70001448FEF779FD4FF4BD70ADF81C00042048
:101C8000ADF818000024ADF81E40ADF81A40050765
:101C900006A9284600F01AF86021ADF808100121C5
:101CA000ADF80A10ADF8104002A92846FFF77EFFF4
:101CB00008212846FFF7BEFF01212846FFF76AFFEB
:101CC00009B030BD000801400187704730B5028877
:101CD0001B4C1C4DA0420DD0A8420BD0B0F1804F40
:101CE00008D0194B984205D0184B984202D0184B97
:101CF000984203D122F070034A881A43154B984248
:101D000006D0154B984203D022F44073CA881A4378
:101D100002808A8882850A880285A0420AD0A84269
:101D200008D00E4A904205D00D4A904202D00D4A8A
:101D3000904201D1097A01860121818230BD0000E3
:101D4000002C014000340140000400400008004025
:101D5000000C004000100040001400400040014012
:101D6000004401400048014070B5174C40F2255135
:101D7000204600F086F9002810D0204600F01AFA1C
:101D8000C1B2F1290AD0114A1088030406D44404D0
:101D90004FF0000307D5DF2901D0138070BD40F458
:101DA0000040108070BDDF290AD0094DC0F30D043A
:101DB0002955401C80B21080EB28F3D9138070BDE8
:101DC00040F48040108070BD003801403600002093
:101DD0002005002070B586B0054601210420FFF7DC
:101DE000D1FA01218803FFF7CDFA4FF40070ADF866
:101DF000140003248DF8164018208DF817001F4E8C
:101E000005A93046FEF7B0FC3015ADF814000420EB
:101E10008DF8170005A93046FEF7A6FC01950020B5
:101E2000ADF80800ADF80A00ADF80C00ADF81000F0
:101E30000C20ADF80E00124D01A9284600F05CF907
:101E40000121284600F0B8F84021284600F0B0F8FB
:101E5000012240F22551284600F033F925208DF863
:101E600000008DF801408DF8024001208DF803003C
:101E70006846FFF703F806B070BD00000008014097
:101E80000038014010B5194C40F22551204600F0B1
:101E9000F8F800280FD0204600F08CF9C0B21449A1
:101EA0000A88120407D40A8853044FF0000208D5A8
:101EB0000A2801D00A8010BD088840F4004008803C
:101EC00010BD0D280CD00B880A4CC3F30D03E05451
:101ED0000888401C088008886328F1D90A8010BD52
:101EE000088840F48040088010BD00000048004091
:101EF0003000002058040020F0B587B005460121CD
:101F00000820FFF73FFA01218804FFF71FFA254E4A
:101F1000304600F05DF83015ADF8140003248DF85C
:101F2000164018208DF817001F4F05A93846FEF7F8
:101F30001BFCF014ADF8140004208DF8170005A95F
:101F40003846FEF711FC01950020ADF80800ADF809
:101F50000A00ADF80C00ADF810000C20ADF80E0032
:101F600001A9304600F0C8F80121304600F024F8FD
:101F700040210E4800F01CF8012240F22551304665
:101F800000F09FF827208DF8180002208DF8190026
:101F90008DF81A4001208DF81B0006A8FEF76EFF91
:101FA00007B0F0BD00480040000C0140003801407F
:101FB0008A05C94301807047002904D0818941F412
:101FC000005181817047818921F4005181817047DE
:101FD00010B5234988420AD101218C032046FFF71E
:101FE000DFF92046BDE810400021FFF7D9B91D49AF
:101FF00088420AD101214C042046FFF7B5F920465A
:10200000BDE810400021FFF7AFB9174988420AD157
:1020100001218C042046FFF7A7F92046BDE81040B7
:102020000021FFF7A1B9114988420AD10121CC044E
:102030002046FFF799F92046BDE810400021FFF740
:1020400093B90B4988420AD101210C052046FFF7BC
:102050008BF92046BDE810400021FFF785B910BD7F
:10206000003801400044004000480040004C00405F
:10207000005000400246002012880A4200D0012091
:10208000704770B5002440F66A12C1F3421301F0A4
:102090001F05012606FA05F2012B0CD0022B0DD0EC
:1020A000838A1340090A8E40008830400BB100B18A
:1020B0000124204670BD83891340F3E7038A13404F
:1020C000F0E710B540F66A13C1F3421301F01F04A4
:1020D0000121A140012B07D0022B07D014303AB1C7
:1020E00002680A43026010BD0C30F8E71030F6E7D2
:1020F00002688A43026010BD30B585B004460D46C3
:10210000208A4CF6FF710840E98801432182A089AA
:102110004EF6F3110840A9882A8911436A890243BF
:102120001143A181A08A4FF6FF410840A9890143CC
:10213000A1826846FFF748F91D48844201D10398FF
:1021400000E00298A189090408D500EBC00101EB69
:10215000001029684900B0FBF1F007E000EBC00176
:1021600001EB001029688900B0FBF1F06422B0FB9C
:10217000F2F109010B096FF018056B4300EB8300C6
:10218000A3891D044FF0320307D503EBC000B0FB59
:10219000F2F000F00700084306E003EB0010B0FB8C
:1021A000F2F000F00F000843208105B030BD0000C0
:1021B000003801408088C0F308007047C1F308016F
:1021C00081807047FEE700000FB4054B10B503A9EE
:1021D000044A029800F0ECF810BC5DF814FB000013
:1021E000F52C00083800002037B514460846064B89
:1021F0006A46214600F086F904466946002000F050
:1022000004FD20463EBD00000B2C000802E008C87B
:10221000121F08C1002AFAD170477047002001E060
:1022200001C1121F002AFBD1704700002DE9FF5F9A
:1022300082B00021DDE90430020DDDF840B0034337
:1022400018D044F61050A2F2FF32424315141198F0
:1022500001281FD0A5EB0B00401C5FEA000A4FF0DD
:1022600000064E4FDFF83891B046504615D5CAF1FA
:10227000000413E0119801244AA3012801D16FEA58
:102280000B010298119AC0E90031C0E9024206B080
:10229000BDE8F09FCBF10000DFE704460021404A93
:1022A000491842EB0450CDE9001012E0E00707D0D6
:1022B00032463B4640464946FEF72BF88046894663
:1022C00032463B4610461946FEF723F806460F46AF
:1022D0006410002CEAD1DDE90401DDE90023BAF144
:1022E000000F06DAFEF715F842464B46FEF711F8E6
:1022F00005E0FEF780F842464B46FEF77CF80446C0
:102300000E460022284BFEF7FDF803D84FF0FF30B1
:10231000014607E00022254B20463146FDF752FFDB
:10232000FEF7D8F8102409E0002C0ADB0A2200236B
:10233000FDF717FF039B30321A55641E50EA010265
:10234000F2D1641C039AC4F111031444119A012AB6
:1023500003D0012208430DD10AE0084304D0002035
:102360004FF0110B119072E7A3EB0B056D1E0DE002
:102370005B4504DD4FF0000205F1010504E003DADE
:102380004FF00002A5F10105002AECD00298119946
:10239000C0E90231C0E9004579E7000000001440BF
:1023A0000000F03F300000000000F0430000E03F7C
:1023B0002DE9FF4F89B09B460446002506E02528FD
:1023C0000BD05A460B999047641C6D1C207800284E
:1023D000F5D10DB02846BDE8F08F0027B8460122A0
:1023E000474900E0074314F8013F203B02FA03F09D
:1023F0000842F7D120782E2819D114F8010F47F0A0
:1024000004072A280ED06FF02F022078A0F13001A7
:1024100009290CD808EB880102EB410100EB010807
:10242000641CF2E70A98641C50F8048B0A90207828
:102430000028CED0642808D0692806D075281ED080
:102440005A460B9990476D1C58E00A994FF00A09BB
:1024500001C90A91002802DA40422D2102E0390523
:1024600004D52B218DF82010012103E0F90704D0B9
:102470002021F7E78A4608AE0DE00021FAE70A9925
:102480004FF00A0901C90A91F7E74946FDF753FEE3
:10249000303106F8011D0028F7D1ADEB060000F140
:1024A0002009780701D44FF00108C84502DDA8EBE8
:1024B000090000E000208046002706E008A85A46F0
:1024C000C05D0B9990476D1C7F1C5745F6DB04E0FF
:1024D00030205A460B9990476D1CB8F10001A8F1C5
:1024E0000108F5DC05E016F8010B5A460B999047F8
:1024F0006D1CB9F10001A9F10109F4DC641C65E768
:10250000092801002DE9FF4F95B09A4688460646F6
:102510000025EEE1252877D100242746F94A01213C
:10252000039400E0044316F8013F203B01FA03F056
:102530001042F7D130782A2811D06FF02F0330786D
:10254000A0F13002092A16D8039A44F0020402EBE3
:10255000820203EB42021044761C0390EFE758F826
:10256000042B0392002A03DA504244F400540390EF
:1025700044F00204761C30782E2816D116F8010F8C
:1025800044F004042A280DD06FF02F023078A0F117
:102590003003092B09D807EB870302EB4303C71865
:1025A000761CF3E758F8047B761C30786C280FD043
:1025B00006DC4C2817D068280DD06A2814D104E016
:1025C000742810D07A280FD10DE044F400140AE0EA
:1025D00044F4801401E044F440147278824202D141
:1025E00004F58014761C761C307866280BD013DC3A
:1025F000582877D009DC002875D04528F6D0462821
:10260000F4D047281AD193E118E0632835D0642824
:1026100079D0652812D18BE1702873D008DC672847
:10262000F1D069286FD06E280DD06F2806D1ACE0AC
:1026300073282CD0752874D0782853D05246179917
:1026400090476D1C54E1C4F30250022809D00328BE
:102650000DD0D8F8001004280DD00D6008F1040842
:1026600046E1D8F80010EA17C1E90052F6E7D8F8B9
:1026700000100D80F2E70D70F0E718F8041B8DF8DC
:10268000001000208DF80100EB46012003E058F80F
:1026900004BB4FF0FF3061074FF0000102D40DE0A2
:1026A00009F101018946B9420FDA8145F8DB1BF8CF
:1026B00009100029F4D108E009F10101894681429D
:1026C000FADB1BF809100029F6D103985346A0EB5A
:1026D000090721463846179A00F080FA284400EB93
:1026E000090507E044E008E10DE01BF8010B524644
:1026F00017999047B9F10109F7D253462146384658
:10270000179AF2E039E00A21C4F302524FF0000BAD
:102710000091022A06D058F8040BC117032A09D0E9
:102720000AE023E008F1070020F00702F2E80201C6
:10273000904605E000B2C117042A01D140B2C1178A
:10274000002906DA0A460021404261EB02012D22EF
:1027500002E0220504D52B228DF80420012203E09B
:10276000E20701D02022F7E7914657E00A2100E076
:1027700010214FF0000B00910BE010214FF0000BE7
:1027800044F004040827009103E008204FF0000BF8
:102790000090C4F30252022A05D058F8040B00211D
:1027A000032A08D008E008F1070020F00702F2E849
:1027B0000201904603E080B2042A00D1C0B24FF07B
:1027C000000922072AD53278702A07D0DDF800C028
:1027D0008CF0100C5CEA0B0C05D00EE040228DF85A
:1027E0000420012208E050EA010306D030238DF8CE
:1027F00004308DF8052002229146009B83F00803E7
:1028000053EA0B030AD150EA010201D1620705D550
:1028100030228DF804204FF001097F1E3278582AAB
:1028200004D039A20C920CAA02920BE03BA2F9E769
:102830005B46009AFDF795FC0C9B9B5C029A521E2E
:102840000292137050EA0102F2D1029804A9081A08
:1028500000F1200B600702D524F4803400E001274A
:102860005F4502DDA7EB0B0000E0002000EB0B0151
:10287000009003984944401A0390E00306D453465D
:102880002146179A039800F0A9F90544002706E0AD
:1028900001A85246C05D179990476D1C7F1C4F459B
:1028A000F6DBE0030CD553462146179A039800F057
:1028B00095F9054404E030205246179990476D1C65
:1028C0000099481E00900029F5DC08E00298029962
:1028D00052460078491C0291179990476D1CBBF134
:1028E0000001ABF1010BF1DC5BE100F065F905449F
:1028F000761C307800287FF40DAE19B02846BDE86C
:10290000F08F00000928010030313233343536377A
:10291000383961626364656600000000303132332B
:1029200034353637383941424344454600000000CB
:10293000600700D4062708F1070020F00700F0E840
:102940000223804603F0004C5FEA0C0001D097A000
:1029500009E0200501D596A005E0E00701D095A08B
:1029600001E0AFF24C001390307823F0004365286B
:102970000CD006DC452809D046281DD047287FD139
:102980003BE0662818D067287AD136E00021112F65
:1029900001DB112000E0781CCDE9000104A90CA89E
:1029A000FFF744FCDDE90D010C9A4FF0000B07F135
:1029B0000109109200914EE04FF000400097CDE9E0
:1029C000011004A90CA8FFF731FCDDE90D020C9BF6
:1029D0000F994FF0000B91461093009211B9791C9A
:1029E00000EB0109B7EB090003D4C0F1FF3B07F18D
:1029F0000109A9EB0700019042E0012F00DA01274D
:102A00000021112F01DD112000E03846CDE9000141
:102A100004A90CA8FFF70AFCDDE90D010C9A00914E
:102A20004FF0000BB946109221070FD4009A4A4587
:102A300003DA914601E0A9F10109B9F1010F05DDC1
:102A4000109AA9F10101515C3029F4D0B84202DAA0
:102A500010F1040F03DA0121CDE9011010E0002884
:102A600003DC8344A9EB000102E0411C494500DD81
:102A70008946A0EB0B00401C01904FF000400290F3
:102A8000200705D40198484502DB4FF0FF30019044
:102A900000208DF84B0002980DF14B07B0F1004F6C
:102AA00025D002200C902B200D90029800280CDAE3
:102AB000404202902D200D9007E00A210298FDF778
:102AC0003AFB3031029007F8011D0C99481E0C901A
:102AD0000029F2DC02980028EFD1791E0D980870C9
:102AE000307800F0200040F0450007F8020D11A8F2
:102AF000C01BC01D02901398007800B1012000EBAC
:102B00000901019801EBE071029801440398401A11
:102B1000401E0390E00306D453462146179A0398BB
:102B200000F05CF805441398007818B152461799E4
:102B300090476D1CE00323D553462146179A03980E
:102B400000F04CF805441BE0BBF1000F07DB0098D8
:102B5000584504DD1098179910F80B0001E01799FB
:102B600030205246904701980BF1010B401E05F1B1
:102B70000105019004D12E205246179990476D1CF3
:102B8000B9F10001A9F10109DEDC05E017F8010B3C
:102B90005246179990476D1C0299481E02900029D1
:102BA000F4DC53462146179A03989EE62D00000058
:102BB0002B000000200000002DE9F0410446002514
:102BC0001E461746880404D405E039462020B04745
:102BD0006D1C641EF9D52846BDE8F0812DE9F04151
:102BE000044600251E469046C80301D5302700E064
:102BF0002027880404D505E041463846B0476D1CBF
:102C0000641EF9D52846BDE8F0810A68531C0B60A4
:102C1000107070472DE9F0410A2501264FF4165037
:102C2000FFF76AF9154FDFF858801CE015A001F096
:102C30007FF900243888000406D4052000F026F827
:102C4000641CE4B20A2CF5D3388800040BD538880C
:102C5000C6B20020388098F800002B2803D198F8DD
:102C600001004F2804D06D1EEDB2DFD215B102E095
:102C70000026FBE701263046BDE8F0813000002049
:102C80005804002041540D0A000000000B494988F7
:102C900048434FF0E021486100238B61086940F010
:102CA000010008610869C20701D0C003FAD50869AC
:102CB00020F0010008618B617047000032000020A5
:102CC0000B49097848434FF0E021486100238B61AC
:102CD000086940F0010008610869C20701D0C0031B
:102CE000FAD5086920F0010008618B617047000087
:102CF0003200002070B50446064DE1B22846FFF7C9
:102D00005DFA80212846FFF7B5F90028F9D0204662
:102D100070BD0000003801402DE9F05F07460D4608
:102D200016469A46DDF828B0FEF792F83846FEF7C8
:102D300064FEFC43E0B2FEF760FE2846FEF75DFE4F
:102D40006FEA050808F0FF00FEF757FE3046FEF771
:102D500054FE6FEA060909F0FF00FEF74EFEFEF78B
:102D6000B7FEFEF775F83846FEF747FEE0B2FEF70D
:102D700044FE2846FEF741FE08F0FF00FEF73DFE48
:102D80003046FEF73AFE09F0FF00FEF736FEFEF78A
:102D90009FFEFEF75DF83846FEF72FFEE0B2FEF725
:102DA0002CFE5046FEF729FE6FEA0A00C0B2FEF77D
:102DB00024FE5846FEF721FE6FEA0B00C0B2FEF774
:102DC0001CFEBDE8F05FFEF783BE0000CAB0002025
:102DD0003E904820FEF7A0FE4FF4A060FEF780F87A
:102DE0004FF416552846FEF7F5FF2846FFF784F8FE
:102DF000FDF720FEFDF755FCFEF726FFFEF7A8FCC9
:102E0000FEF7E4F8FEF7AEF84FF4FA750DE0F5A022
:102E1000FFF7DAF92846FFF739FF00210C23F6A265
:102E20000846FEF75EFAFEF73DF9FFF7F3FE0028CD
:102E3000EDD1FEF797F8F5A0FFF7C6F900210C23B6
:102E4000F6A20846FEF74DFAFEF72CF90DE0F8A0C1
:102E5000FFF7BAF92846FFF719FF0C23FAA2102151
:102E60000020FEF73EFAFEF71DF9FDF703FC0028EF
:102E7000EDD1FBA0FFF7A8F90C23FEA21021002042
:102E8000FEF72FFAFEF70EF92846FFF7FFFE4FF484
:102E9000FA40FDF708FC064647F60150FDF703FC33
:102EA000814647F60250FDF7FEFB439047F603507C
:102EB000FDF7F9FB074647F60450FDF7F4FB05461E
:102EC000FEF750F8F048815D401FC05D0143EE48B9
:102ED0000C388170C11C11F8091041704FF0000BC3
:102EE0004FF000080BEB4B0049904FEA0B10489055
:102EF0000120009049986FF0060340440B30C2B2A5
:102F00004898C1B208F1030003EB0010C0B21023CF
:102F1000FEF74EF908F1010808F0FF08B8F1030FB9
:102F2000E6D30BF1010B0BF0FF0BBBF1030FD7D373
:102F3000FEF7B8F84FF47A784046FFF7A7FE404610
:102F4000FFF7A4FE0120FFF7A1FEEC2105FB01F035
:102F5000FDF7A9FB42900120FFF798FE05EB8500E5
:102F6000C0EB85104FF0010B0BEB800080B2FDF73A
:102F70009AFB4190FDF7F6FFB9F1000F09D0B9F1C6
:102F8000010F0DD0B9F1020F11D0B9F1030F1BD110
:102F900014E000211023BDA20846FEF7A2F913E0B9
:102FA00000211023BBA20846FEF79BF90CE000218C
:102FB0001023BAA20846FEF794F905E00021102379
:102FC000B8A20846FEF78DF910200090022306F102
:102FD000110200213020FEF745F910230A220021BA
:102FE0004020CDF800B0FEF7E3F84FF000080120D4
:102FF000009008EB4700C2B208F106000007000E7F
:1030000010230021FEF7D4F808F1010808F0FF08AA
:10301000B8F1020FEBD310200146009003232A469B
:103020000020FEF71FF91023A0A219461C20FEF76E
:1030300058F9FEF737F8002211461046FDF75AFFFF
:103040004FF00008FDF75EFD02281CD0022C1AD0BC
:1030500001283ED0012C3CD003285ED0032C5CD04C
:1030600004287AD0042C78D0062877D00021062CAA
:1030700075D00022114373D0002428466D1CEDB298
:1030800064286ED034E100243046761CF6B20D2858
:1030900000D100267C48825D401FC05D02437A4813
:1030A0000C38827041780078FDF724FF10200090E2
:1030B000022306F1110200213020FEF7D3F8FDF7BC
:1030C000F1FF4FF0010A31464FF4FA40FDF70DFBD6
:1030D00062E20024761EF6B200D20D266A48825DB6
:1030E000401FC05D024368480C3882704178007808
:1030F000FDF700FF10200090022306F111020021CD
:103100003020FEF7AFF8FDF7CDFF4FF0010A314652
:103110004FF4FA40FDF7E9FADAE70024484609F1EE
:10312000010909F0FF09022800D9A14656480938CB
:1031300010F80910C01E417082780078FDF7DAFEA1
:10314000B9F1000F0ED0B9F1010F12D0B9F1020F91
:1031500016D0B9F1030F20D119E028E0C3E0C4E094
:10316000EDE0C4E00021102348A20846FEF7B9F8BC
:1031700013E00021102347A20846FEF7B2F80CE046
:103180000021102345A20846FEF7ABF805E0002118
:10319000102344A20846FEF7A4F8FDF783FF4FF082
:1031A000010A494647F60150FDF79FFA90E70024CF
:1031B00038467F1CFFB2042800D100273248825DC8
:1031C000401FC05D024330480C388270417800785F
:1031D000FDF790FE4FF0000A4FF0010B0AEB47009D
:1031E000C2B265E04254313120436865636B2045CB
:1031F000726E6F72210D0A004254313120436865AE
:10320000636B2045726E6F722100000042543131B1
:1032100020436865636B204F4B0D0A0042543131E7
:1032200020436865636B204F4B2020200000000086
:1032300041543234433032BCECB2E2B2BBD5FDB3C0
:10324000A3210D0A000000004154323443303220E3
:10325000436865636B2045726E6F72210000000049
:1032600041543234433032BCECB2E2D5FDB3A32139
:103270000D0A000041543234433032204368656304
:103280006B204F4B210000000C0000204175746F33
:1032900000000000204C6F7700000000204D6964A2
:1032A0000000000048696768000000003A00000064
:1032B0000AF106000007000E10230021CDF800B02F
:1032C000FDF776FF0AF1010A0AF0FF0ABAF1020FD0
:1032D00084D3FDF7E7FE4FF0010A394647F6035065
:1032E000FDF703FA58E10121C1E60122C2E60025FB
:1032F00010200146009003232A460020FDF7B2FF6C
:10330000FDF7D0FE294647F60450FDF7EEF90120FF
:10331000FFF7BCFCEC2105FB01F0FDF7C4F942907E
:103320000120FFF7B3FC05EB8500C0EB8511012000
:1033300000EB810080B2FDF7B6F941902CE1052841
:1033400031D00021052C30D0002211432FD0002491
:103350006D1EEDB200D264251020014600900323BB
:103360002A460020FDF77EFFFDF79CFE294647F622
:103370000450FDF7BAF90120FFF788FCEC2105FBAA
:1033800001F0FDF790F942900120FFF77FFC05EB7B
:103390008500C0EB8511012000EB810080B2FDF7B4
:1033A00082F94190F8E00121CCE70122CDE709281C
:1033B00077D00021092C76D00022114370D0012053
:1033C00040900024DFF824B4FD215846FEF7F6FEB5
:1033D0000120FFF75BFCFD215846FEF7EFFE0120C0
:1033E000FFF754FCF1215846FEF7E8FE0120FFF7F5
:1033F0004DFCF2215846FEF7E1FE0120FFF746FCA6
:10340000A3460021F948FEF7D9FE0220FFF73EFC53
:103410000BF1010B0BF0FF0BBBF1E40FF1D3DFF865
:10342000CCB3F1215846FEF7C9FE0120FFF72EFC70
:10343000F2215846FEF7C2FE0120FFF727FCDF21EC
:103440005846FEF7BBFE0120FFF720FCDF2158465F
:10345000FEF7B4FE0220FFF719FC1023E4A220219E
:103460000020FDF73EFFFDF71DFEE4A000F060FD2B
:10347000E4A0FEF7A9FEE3A0FEF7A6FEE1A0FEF79A
:10348000A3FEDEA0FEF7A0FEDEA0FEF79DFEDDA0FF
:10349000FEF79AFEDBA0FEF797FE60E001E002E097
:1034A0007BE0012186E7012287E7FDF72BFB092856
:1034B00001D0092C02D1002040900024D24800887D
:1034C00000041BD54FF0000B0220FFF7DFFBCF48B5
:1034D00010F80B1002A800F80B100BF1010B0BF009
:1034E000FF0BBBF1EA0FEFD3DF208DF8F2008DF870
:1034F000F300C548A0F8008000204090FDF7D2FD01
:10350000C3480188090406D5C2490978082900D1B1
:103510000924A0F800800088000407D5BB48007883
:10352000082800D10924B848A0F800804FF40041D1
:10353000B948FDF76CF950B1012010230090142216
:1035400019467020FDF734FEFDF7ACFD07E01023AF
:10355000B2A219467020FDF7C4FEFDF7A3FD409806
:103560000028A2D1A848A0F800801023ACA22021F6
:103570000020FDF7B6FEFDF795FDACA000F0D8FCED
:10358000AAA0FEF721FE9FA0FEF71EFE9DA0FEF75B
:103590001BFE9CA0FEF718FE12E3072832D0002184
:1035A000072C31D00022114330D00024EC2005FB41
:1035B00000FBDF215846FDF798F80120FFF766FB76
:1035C00005EB8500C0EB8511012000EB81004790E1
:1035D00080B2DF21FDF789F80120FFF757FB58463D
:1035E000FDF761F842900120FFF750FB479880B249
:1035F000FDF759F8419090A000F09AFC8EA0FEF7DC
:10360000E3FDDDE20121CBE70122CCE70A280AD065
:1036100000210A2C09D00022114360D000249DF81B
:10362000080040B903E00121F3E70122F4E79DF827
:1036300009000028B0D04FF0000B02A810F80B10C2
:103640006A48FEF7BBFD0220FFF720FB0BF1010BE0
:103650000BF0FF0BBBF1EC0FEFD30A20FFF716FBCB
:10366000DFF8A8B19BF80000FD2803D0F12801D0B5
:10367000092822D1FD208BF80000102371A22021FF
:103680005020FDF72EFEFDF70DFD5EA0FEF79CFD20
:103690005CA0FEF799FD5BA0FEF796FD6BA000F025
:1036A00047FC6AA0FEF790FD56A0FEF78DFD55A0E1
:1036B000FEF78AFD53A0FEF787FD5348FD218BF8E6
:1036C0000010A0F800800A20FFF7E0FA102362A2A1
:1036D00020215020FDF705FEFDF7E4FC70E20C28E8
:1036E0000AD000210C2C09D00022114365D00024FF
:1036F0004298FD2804D04EE00121F3E70122F4E7CF
:103700004198FD2847D14FF0000B05EB8500C0EB39
:103710008510469046980BEB800080B2FCF7C3FF03
:1037200001463248FEF74AFD0220FFF7AFFA0BF1DF
:10373000010B0BF0FF0BBBF1EC0FEBD30A20FFF7F3
:10374000A5FA32490878FD2803D0F12801D00B28CA
:1037500021D1FD20087010233AA220215020FDF72E
:10376000C0FDFDF79FFC27A0FEF72EFD25A0FEF76C
:103770002BFD24A0FEF728FD34A000F0D9FB33A0D8
:10378000FEF722FD1FA0FEF71FFD1EA0FEF71CFD89
:103790001CA0FEF719FD1C48A0F800801B49FD2065
:1037A00008700A20FFF772FA10232BA22021502064
:1037B000FDF797FDFDF776FC02E20B2852D00B2CAB
:1037C00050D00D287ED00D2C7CD010287BD0102C12
:1037D000FCD0082878D0082CFCD00E2875D00E2CF0
:1037E000FCD00F2872D00F2CFCD0E9E1003801404A
:1037F0005374756479696E672000000053747564B2
:1038000079696E670D0A000036000020200500204F
:103810003000002058040020000801404200000051
:1038200020202020202020200000000053747564F8
:103830006965640D0A00000044656C657465640D7B
:103840000A00000053656E646564000053656E6491
:1038500065640D0A00000000202020202020202088
:10386000200000000024A34605EB8500C0EB851076
:10387000459002A810F80B1045980BEB800080B221
:10388000FCF733FF0220FFF701FA0BF1010B0BF0FD
:10389000FF0BBBF1EC0FECD3EC2105FB01F0FCF7C7
:1038A00002FF42900120FFF7F1F94598012101EB59
:1038B000800080B2FCF7F7FE4190F7A000F038FBE3
:1038C000F5A004E006E0FEE027E164E172E1FEF726
:1038D0007BFC75E1002401203F901023F1A23021F0
:1038E0000020FDF7FEFCFDF7DDFB0020FDF7EEFDFF
:1038F000EE48DFF8BCB301788BF8001040788BF805
:103900000100CEE0FDF7FEF8022812D0022C10D004
:10391000012824D0012C22D0062836D0062C34D001
:10392000052848D0052C46D00D285AD00D2C58D04B
:1039300063E000249BF80000411C8BF8001017285E
:1039400001D18BF80080102000909BF8002002230A
:1039500030214020FDF786FCFDF7A4FB4DE000245C
:103960009BF80000411E8BF8001002D217208BF844
:103970000000102000909BF80020022330214020FE
:10398000FDF770FCFDF78EFB37E000249BF801008B
:10399000411C8BF801103B2801D18BF801801020CD
:1039A00000909BF80120022330215820FDF75AFC9B
:1039B000FDF778FB21E000249BF80100411E8BF805
:1039C000011002D23B208BF80100102000909BF8E0
:1039D0000120022330215820FDF744FCFDF762FB53
:1039E0000BE0002400203F901023AFF2CC123021D6
:1039F000FDF777FC0120FDF769FDAE49088800045A
:103A000018D5AD48007804280FD003DC38B1012860
:103A10000ED106E0052806D00C2809D107E00124C4
:103A200006E0022404E0062402E0052400E00D2460
:103A3000A1F80080A1490888000418D5A0480078A2
:103A400004280FD003DC38B101280ED106E0052888
:103A500006D00C2809D107E0012406E0022404E086
:103A6000062402E0052400E00D24A1F800804FF4B4
:103A700000419448FCF7CBFE50B101201023009088
:103A8000142219467020FDF793FBFDF70BFB08E0AD
:103A90001023AFF2782219467020FDF722FCFDF7C3
:103AA00001FB3F9800287FF42DAF80489BF8011060
:103AB0008278CDE90012C27981799BF80030808844
:103AC000FDF7B6FE7CE00024439890B100204390BF
:103AD000439880B10023E0227B21B220CDF8008002
:103AE000FFF71AF978A0FEF76FFB79A000F020FA33
:103AF0000DE00120EBE77848827841780078FDF707
:103B0000F9F976A0FEF760FB76A000F011FA47F60F
:103B100002504399FCF7E9FD52E000244298FD2849
:103B200029D14198FD2826D14FF0000B05EB8500E7
:103B3000C0EB8510449044980BEB800080B2FCF7FA
:103B4000B2FD01466948FEF739FB0220FFF79EF8F7
:103B50000BF1010B0BF0FF0BBBF1EC0FEBD30A20C9
:103B6000FFF794F81023AFF2243220215020FDF704
:103B7000B8FBFDF797FA4F48A0F800800A20FFF73E
:103B800085F81023AFF2303220215020FDF7A9FB39
:103B9000FDF788FA14E000243E98401C80B23E9065
:103BA00053A03E9900F0C4F93E980A2808D9002095
:103BB0003E9005E0002400229F21B220FDF79AF9F3
:103BC000BAF1010F5CD14FF0000A06F111018B46EA
:103BD0004BA0FEF7F9FA59464CA000F0A9F9B9F14B
:103BE000000F09D0B9F1010F0DD0B9F1020F11D0BA
:103BF000B9F1030F1BD114E048A0FEF7E5FA4AA083
:103C000000F096F913E04AA0FEF7DEFA4BA000F0B0
:103C10008FF90CE04BA0FEF7D7FA4DA000F088F921
:103C200005E04DA0FEF7D0FA4EA000F081F9052F77
:103C300026D2DFE807F0030A11181F004BA0FEF799
:103C4000C3FA4DA000F074F91AE04DA0FEF7BCFADB
:103C50004EA000F06DF913E04EA0FEF7B5FA50A0AB
:103C600000F066F90CE052A0FEF7AEFA53A000F0A7
:103C70005FF905E054A0FEF7A7FA56A000F058F946
:103C80000C480188090404D50B490978102901D290
:103C9000A4E0CEE0CBE000004465706F736974650A
:103CA000640D0A0053657474696E67004E04002049
:103CB0003C00002030000020580400203600002086
:103CC0002005002000080140B9D8BBFA0D0A000009
:103CD000436C6F73650D0A0000000020BFAABBFA99
:103CE0000D0A00004F70656E0D0A0000004800408C
:103CF00053656E6420446174653A25640D0A0000C2
:103D0000CEC2B6C83A2564090000000054656D7043
:103D1000657261747572653A25640900B7E7CBD99D
:103D20003AD7D4B6AF0900004175746F090000009E
:103D3000B7E7CBD93AB5CDCBD90900004C6F77099D
:103D400000000000B7E7CBD93AD6D0CBD9090000A4
:103D50004D69640900000000B7E7CBD93AB8DFCB62
:103D6000D90900004869676809000000C4A3CABDFA
:103D70003AD7D4B6AF0D0A004175746F0D0A000032
:103D8000C4A3CABD3AD6C6C0E40D0A00436F6C6432
:103D90000D0A0000C4A3CABD3AB3FDCAAA0D0A00A9
:103DA00041726566616374696F6E0D0A0000000000
:103DB000C4A3CABD3ACBCDB7E70D0A00426C6F77FA
:103DC000696E670D0A000000C4A3CABD3AD6C6C812
:103DD000C80D0A00486F740D0A000000DFE801F00A
:103DE000080A0C0E10121416181A1C1E2022242663
:103DF00001241CE002241AE0032418E0042416E045
:103E0000052414E0062412E0072410E008240EE044
:103E100009240CE00A240AE00B2408E00C2406E044
:103E20000D2404E00E2402E00F2400E01024A0F88A
:103E300000803448018809042ED5334909781029B7
:103E400028D2DFE801F0080A0C0E10121416181A16
:103E50001C1E2022242601241CE002241AE0032434
:103E600018E0042416E0052414E0062412E00724D8
:103E700010E008240EE009240CE00A240AE00B24D8
:103E800008E00C2406E00D2404E00E2402E00F24D8
:103E900000E01024A0F800804FF400411B48FCF71C
:103EA000B6FC50B101201023009014221946702056
:103EB000FDF77EF9FDF7F6F808E01023AFF2A462F3
:103EC00019467020FDF70DFAFDF7ECF84298FD2831
:103ED00002D14198FD280BD010230DA219463020A5
:103EE000FDF7FFF9FDF7DEF8FDF7DCF8FFF7AAB8FC
:103EF000102309A219463020FDF7F3F9FDF7D2F897
:103F0000F2E70000360000202005002000080140F4
:103F10004E6F6E65202000004578697374200000A4
:103F20000346012000E05843491EC9B2FBD2704746
:103F30000FB4F8B507AA0F480699FEF755F9002007
:103F400000900C48FCF7F0F886B200240A4F094DA7
:103F50000BE040213846FEF78DF80028F9D0295DA6
:103F60003846FEF72BF9641CA4B2B442F1D3F8BC76
:103F70005DF814FBBC0400200048004010B5044666
:103F8000FCF7F6FC7820FCF7C9FCFCF719FD0020D3
:103F9000FCF7C4FCFCF714FD2046FCF7BFFCFCF763
:103FA0000FFDBDE81040FCF7F7BC10B50446FCF768
:103FB000DFFC7820FCF7B2FCFCF702FD4020FCF7A8
:103FC000ADFCFCF7FDFC2046FCF7A8FCFCF7F8FC78
:103FD000BDE81040FCF7E0BC00000000000000005D
:103FE00000000000000000003F4000000000000052
:103FF00000003000400030004000000009000BC00D
:104000003D000BC03D00090018C024407FE0224065
:1040100031800000180024C01B000D803240018058
:1040200003801C4027401C800740004010006000B7
:1040300000000000000000000000000000001F80E1
:10404000204040200000402020401F800000000051
:10405000090006001F80060009000000040004009B
:104060003F80040004000000001000600000000019
:10407000000000000400040004000400040000002C
:10408000000000400000000000000000002001C00F
:1040900006003800400000001F80204020402040E3
:1040A0001F800000000010403FC0004000000000E2
:1040B00018C02140224024401840000010802040B9
:1040C000244024401B80000002000D0011003FC06E
:1040D000014000003C802440244024402380000014
:1040E0001F80244024403440038000003000200022
:1040F00027C03800200000001B80244024402440BA
:104100001B8000001C0022C0224022401F800000B3
:104110000000000008400000000000000000000057
:104120000460000000000000000004000A0011000C
:104130002080404009000900090009000900000032
:1041400000004040208011000A00040018002000F8
:1041500023402400180000001F80204027402940F1
:104160001F400000004007C039000F0001C00040A0
:1041700020403FC0244024401B8000001F8020407E
:10418000204020403080000020403FC020402040A0
:104190001F80000020403FC024402E4030C000005F
:1041A00020403FC024402E00300000000F0010804F
:1041B000204022403380020020403FC00400040021
:1041C0003FC02040204020403FC020402040000011
:1041D0000060202020203FC02000200020403FC061
:1041E00024400B0030C0204020403FC02040004011
:1041F000004000C03FC03C0003C03C003FC0000086
:1042000020403FC00C4023003FC020001F802040C2
:10421000204020401F80000020403FC02440240058
:10422000180000001F802140214020E01FA0000056
:1042300020403FC02440260019C0004018C0244040
:104240002440224031800000300020403FC0204008
:104250003000000020003F80004000403F802000F0
:1042600020003E0001C0070038002000380007C0D1
:104270003C0007C038000000204039C0060039C0AB
:10428000204000002000384007C0384020000000D7
:10429000304021C02640384020C00000000000000F
:1042A0007FE0402040200000000070000C000380F0
:1042B000004000000000402040207FE0000000009F
:1042C000000020004000200000000000001000104E
:1042D000001000100010001000000000400000005E
:1042E00000000000000002800540054003C00040BF
:1042F00020003FC004400440038000000000038011
:1043000004400440064000000000038004402440B4
:104310003FC000400000038005400540034000000E
:10432000000004401FC0244024402000000002E0A0
:10433000055005500650042020403FC004400400B2
:1043400003C000400000044027C0004000000000FF
:1043500000100010041027E00000000020403FC0C3
:104360000140070004C00440204020403FC00040FE
:104370000040000007C0040007C0040003C00000A4
:10438000044007C00440040003C000400000038054
:104390000440044003800000041007F0045004406F
:1043A00003800000000003800440045007F0001068
:1043B000044007C002400400040000000000064062
:1043C0000540054004C00000000004001F800440B8
:1043D00000400000040007800040044007C0004087
:1043E0000400070004C0018006000400060001C0AC
:1043F000070001C006000000044006C0010006C01E
:10440000044000000410071004E0018006000400CE
:104410000000044005C00640044000000000000009
:1044200004007BE040200000000000000000FFF0DE
:1044300000000000000040207BE0040000000000BD
:1044400040008000400020002000400000000000EC
:10445000000000000000000000000000000000005C
:1044600000001FCC000C000000000000000008004D
:10447000300060000800300060000000022003FCF3
:104480001E20022003FC1E200220000000000E1847
:1044900011043FFF10840C78000000000F0010840E
:1044A0000F3800C0077818840078000000780F8467
:1044B00010C411240E9800E400840008080068006D
:1044C000700000000000000000000000000000007C
:1044D000000007E01818200440020000000040021D
:1044E0002004181807E0000000000000024002400D
:1044F00001800FF001800240024000000080008037
:1045000000800FF800800080008000000001000D96
:10451000000E00000000000000000000000000800D
:104520000080008000800080008000800000000C7F
:10453000000C000000000000000000000000000669
:10454000001800600180060018002000000007F03D
:10455000080810041004080807F000000000080410
:1045600008041FFC000400040000000000000E0C02
:1045700010141024104411840E0C000000000C18BC
:1045800010041104110412880C700000000000E0F7
:104590000320042408241FFC0024000000001F98AE
:1045A000108411041104108810700000000007F03E
:1045B00008881104110418880070000000001C0015
:1045C000100010FC13001C001000000000000E384A
:1045D00011441084108411440E38000000000700BC
:1045E000088C10441044088807F000000000000008
:1045F0000000030C030C000000000000000000009D
:104600000001010600000000000000000000008022
:1046100001400220041008081004000002200220BB
:1046200002200220022002200220000000001004CC
:1046300008080410022001400080000000000E0065
:104640001200100C106C10800F00000003E00C181A
:1046500013E4142417C4082807D000000004003C09
:1046600003C41C40074000E4001C000410041FFCAD
:104670001104110411040E880070000003E00C18EE
:1046800010041004100410081C10000010041FFC7B
:10469000100410041004080807F0000010041FFCA8
:1046A0001104110417C410040818000010041FFCA2
:1046B0001104110017C010000800000003E00C18DE
:1046C0001004100410441C780040000010041FFC6B
:1046D00010840080008010841FFC1004000010046F
:1046E00010041FFC1004100400000000000300016F
:1046F000100110011FFE10001000000010041FFC2C
:10470000110403801464181C1004000010041FFC22
:104710001004000400040004000C000010041FFC3E
:104720001F0000FC1F001FFC1004000010041FFCF1
:104730000C04030000E010181FFC100007F008082C
:10474000100410041004080807F0000010041FFCF7
:1047500010841080108010800F00000007F00818EF
:1047600010241024101C080A07F2000010041FFC7B
:104770001104110011C011300E0C000400000E1CB9
:1047800011041084108410441C380000180010001C
:1047900010041FFC100410001800000010001FF887
:1047A00010040004000410041FF8100010001E0084
:1047B00011E0001C007013801C0010001FC0103C92
:1047C00000E01F0000E0103C1FC000001004180CA7
:1047D000163401C001C01634180C100410001C005F
:1047E000130400FC13041C00100000000804101C3B
:1047F0001064108413041C04101800000000000052
:1048000000007FFE40024002400200000000300035
:104810000C0003800060001C000300000000400248
:10482000400240027FFE0000000000000000000087
:104830002000400040004000200000000001000176
:104840000001000100010001000100010000400022
:104850004000200000000000000000000000009860
:10486000012401440144014400FC000410001FFC29
:10487000008801040104008800700000000000703E
:104880000088010401040104008800000000007099
:1048900000880104010411081FFC0004000000F856
:1048A000014401440144014400C800000000010427
:1048B00001040FFC1104110411001800000000D6BF
:1048C00001290129012901C90106000010041FFC6A
:1048D000008401000100010400FC00040000010448
:1048E000190419FC0004000400000000000000038B
:1048F00000010101190119FE0000000010041FFC55
:104900000024004001B4010C010400000000100468
:1049100010041FFC0004000400000000010401FC5E
:104920000104010001FC0104010000FC010401FC80
:10493000008401000100010400FC0004000000F8F4
:10494000010401040104010400F80000010101FF59
:104950000085010401040088007000000000007060
:10496000008801040104010501FF000101040104A4
:1049700001FC00840104010001800000000000CC63
:1049800001240124012401240198000000000100F9
:10499000010007F80104010400000000010001F813
:1049A000000400040004010801FC0004010001806F
:1049B0000170000C001001600180010001F0010C89
:1049C000003001C00030010C01F0010000000104C2
:1049D000018C00740170018C01040000010101814F
:1049E0000171000E001801600180010000000184C7
:1049F000010C013401440184010C0000000000009E
:104A00000000000001003EFC4002400200000000E7
:104A100000000000FFFF0000000000000000400256
:104A200040023EFC010000000000000000006000A9
:104A300080008000400040002000200000000000B6
:104A40000000000000000000000000000000000066
:104A50000000000000000000000000000000000056
:104A60000000000000000000000000000000000F37
:104A700080380FFE380F8038000000000000000072
:104A8000000000000000000000000100000600001F
:104A90000C00003800003100000600000C00003857
:104AA000000030000000000000000000618000678E
:104AB000F807F980006180006180006180006180FA
:104AC0000067F807F9800061800000000000000026
:104AD000000001C0E003E0F00630080418081FFFE2
:104AE000FE040E080787F00381E0000000000000CC
:104AF00001F000060C00040408060C7001F9C00067
:104B00000E00003BE000EC18070808040C18000336
:104B1000E00000000001E00007F003F818041C08A2
:104B200004170807E1D003C0E00023B0003C0800F0
:104B3000200800001000000000000001000031000B
:104B4000003200001C000000000000000000000017
:104B50000000000000000000000000000000000055
:104B60000000000000000000000000007F0001FFC6
:104B7000C00780F00C0018100004200002000000A4
:104B80000000002000021000040C00180780F00153
:104B9000FFC0007F000000000000000000000000D7
:104BA00000000000000000004200006600006600F7
:104BB000003C0000180003FFC0001800003C00008B
:104BC00066000066000042000000000008000008C7
:104BD0000000080000080000080001FFC0000800F5
:104BE00000080000080000080000080000000000A5
:104BF000000100003100003200001C000000000035
:104C000000000000000000000000000000000000A4
:104C10000000000008000008000008000008000074
:104C20000800000800000800000800000800000854
:104C30000000000000000000000000003800003804
:104C4000000038000000000000000000000000002C
:104C5000000000000000000000000000000600004E
:104C60001C000070000180000E0000380000C00031
:104C70000700001C000030000000000000000000E1
:104C80007F8001FFE0038070060018040008040024
:104C90000806001803807001FFE0007F800000001C
:104CA00000000000000001000801000801000803E6
:104CB000FFF807FFF80000080000080000080000E7
:104CC0000000000000000001C03802C05804009835
:104CD000040118040218040418061C1803F818012B
:104CE000E0F800000000000000000001C0E003C088
:104CF000F004000804080804080806180803F4185B
:104D000001E7F00001E000000000000000000000EA
:104D10000300000D00001100006100008108030184
:104D20000807FFF80FFFF800010800010800000065
:104D30000000000000E007FCD00608080610080686
:104D40001008061008061838060FF00607C0000005
:104D500000000000000000003F8001FFE0038430FD
:104D6000020818041008041008041008071810039B
:104D70000FF00007C000000000000000000003C0AA
:104D8000000700000600000600F80607F8061800F5
:104D900006E000070000060000000000000000011F
:104DA000E1E003F7F0063410041808041808040CB6
:104DB00008040C0806161803F3F001C1E000000017
:104DC00000000000F80003FC300306380402080469
:104DD00002080402080404100308F001FFC0007F69
:104DE00000000000000000000000000000000000C3
:104DF00000000000703800703800703800000000BB
:104E000000000000000000000000000000000000A2
:104E10000000000000000000301A00301C000000FC
:104E20000000000000000000000000000000000082
:104E30000000000800001400002200004100008073
:104E4000800100400200200400100800080000005B
:104E500000000000210000210000210000210000CE
:104E6000210000210000210000210000210000217C
:104E7000000000000000000000000800080400100E
:104E8000020020010040008080004100002200005C
:104E9000140000080000000000000003C00004C06F
:104EA00000040000080038080F380808380810000F
:104EB0000C300007E00003C000000000000000000C
:104EC0003F8000FFE0038070020F1006708804C06E
:104ED00088048308047F8802C09003012000FE40FC
:104EE0000000080000180001F8003E0801C2000799
:104EF000020007E20000FE00001FC80001F80000E9
:104F00003800000804000807FFF807FFF804080845
:104F100004080804080804080806180803F418011F
:104F2000E7F00001E0000000000000003F8001FF0A
:104F3000E003807002001804000804000804000860
:104F40000400100600200780C000000004000807CD
:104F5000FFF807FFF8040008040008040008040034
:104F60001802001003807001FFE0007F8000000045
:104F700004000807FFF807FFF804080804080804FD
:104F80000808040808043E08040008060018010088
:104F90006000000004000807FFF807FFF804080895
:104FA000040800040800040800043E00060000068F
:104FB0000000018000000000000000003F8001FFB1
:104FC000E0038070060018040008040208040208C8
:104FD0000203F00783F0000200000200040008074B
:104FE000FFF807FFF80408080008000008000008A0
:104FF0000000080004080807FFF807FFF80400088D
:105000000000000000000400080400080400080775
:10501000FFF807FFF8040008040008040008000077
:105020000000000000000000000600000700000172
:1050300004000104000104000307FFFE07FFFC0455
:10504000000004000004000004000807FFF807FF48
:10505000F8040C08001800003E0004C7800503C8CF
:105060000600F804003804001800000804000807CF
:10507000FFF807FFF804000800000800000800001F
:105080000800000800000800001800006000000090
:1050900004000807FFF807800807FC00007FC00035
:1050A00003F80007C000780007800807FFF807FF33
:1050B000F804000804000807FFF807000803C00010
:1050C00000E000003800001E000007000001C004DE
:1050D00000F007FFF8040000000000007F8001FFDF
:1050E000E003807006001804000804000806001899
:1050F00003003001FFE0007F80000000040008078B
:10510000FFF807FFF8040408040400040400040482
:1051100000040400060C0003F80001F00000000089
:10512000000000007F8001FFE0038070060088041B
:1051300000880400C806003C03003E01FFE6007F33
:105140008400000004000807FFF807FFF8040808BF
:10515000040800040C00040F00040BC00610F00348
:10516000F03801E00800000800000001E0F803F05A
:1051700030063010041808041808040C08040C0841
:105180000206180207F00781E00000000180000617
:10519000000004000004000004000807FFF807FFF7
:1051A000F80400080400000400000600000180006C
:1051B00004000007FFE007FFF004001800000800EB
:1051C000000800000800000800000804001007FFA5
:1051D000E004000004000006000007E00007FE00F5
:1051E000041FE00001F80000380001E0043E000761
:1051F000C00006000004000004000007E00007FFF4
:10520000C0041FF80007C007F80007FF80043FF83C
:105210000007C004F80007000004000000000004BC
:10522000000806001807C07805F1C8003E00001FFE
:10523000800463E80780F8060018040008000000F6
:1052400004000006000007800007E008047C080056
:105250001FF80007F800180804E00807000006001F
:10526000000400000000000100080600380400F8F7
:105270000403E8040F08047C0805F00807C00807C9
:1052800000180400600000000000000000000000A2
:10529000000000000000003FFFFE2000022000028E
:1052A0002000022000022000020000000000000098
:1052B000000008000007000000C0000038000006E1
:1052C000000001C000003000000E000001000000DE
:1052D0000000000000002000022000022000022048
:1052E00000022000023FFFFE00000000000000005E
:1052F00000000000000000000000000000080000A6
:1053000010000030000020000030000010000008F5
:10531000000000000000000000000100000100008B
:105320000100000100000100000100000100000177
:105330000000010000010000010000010000000069
:1053400000000000002000002000001000001000FD
:10535000000000000000000000000000000000004D
:105360000000000000F00019F8001B1800220800DF
:105370002608002408002410003FF8001FF8000051
:105380000800001800000004000007FFF80FFFF0FD
:10539000001818001008002008002008003018002D
:1053A0001FF0000FC00000000000000007C0001F39
:1053B000F0001830002008002008002008003C08F9
:1053C000001C100000600000000000000000000051
:1053D00007C0001FF0003818002008002008002037
:1053E0000804101007FFF80FFFF000001000000085
:1053F0000000000000000007C0001FF00012300095
:105400002218002208002208003208001E10000E98
:1054100020000000000000002000002008002008FC
:1054200001FFF803FFF806200804200804200807FD
:10543000200003000000000000000000000E000E2D
:105440006E001FF30031B10020B10020B100319196
:10545000001F13002E1E00200E003000000000046C
:10546000000807FFF80FFFF80010080020000020D8
:1054700000002008003FF8001FF8000008000000AE
:10548000000000000000002008002008002008069E
:105490003FF8063FF8000008000008000008000080
:1054A00000000000000000000000000003000003F6
:1054B000002001002001002003063FFE063FFC0003
:1054C000000000000000000000000004000807FFCA
:1054D000F80FFFF8000188000300002FC00038F823
:1054E0000020380020080000080000000000000034
:1054F000000004000804000804000807FFF80FFF7C
:10550000F80000080000080000080000000000008B
:10551000002008003FF8003FF800100800200000BD
:105520003FF8003FF8001008002000003FF8003F5F
:10553000F8000008000000002008003FF8003FF8D5
:10554000001008001000002000002008003FF800B4
:105550001FF80000080000000000000007C0000F56
:10556000F000183000300800200800200800300843
:10557000001830000FF00007C0000000000000001D
:105580002001003FFF003FFF001011002009002014
:1055900008002008003038001FF0000FC000000095
:1055A0000000000007C0001FF000381800200800AD
:1055B0002008002009001011001FFF003FFF00001D
:1055C00001000000002008002008002008003FF82B
:1055D000003FF80008080010080020080020000024
:1055E0003000003000000000000000000000000C4F
:1055F00078001E18003308002308002108002188C5
:105600000021980030F00038600000000000000029
:10561000200000200000200000FFF003FFF8002021
:1056200008002008002008000030000000000000F2
:10563000000000002000003FF0007FF8000018008C
:105640000008000008002010003FF8007FF0000074
:1056500010000000000000002000003000003C00AE
:10566000003F800023F000007800007000238000DD
:105670003C00003000002000002000003C00003F03
:10568000E00023F80000E0002700003E00003FE0BB
:105690000021F80001E0003E0000200000000000B2
:1056A0002008002008003838003E680027800003EA
:1056B000C8002CF80038380020180020080000002E
:1056C000000000002000003003003C01003F830088
:1056D00023EC000070002380003C0000200000202C
:1056E0000000000000000000000000380800203822
:1056F0000020F80023E8002F88003E08003808004A
:1057000020180000700000000000000000000000F1
:10571000000000000000000008000014001FF7FC5B
:105720003000062000020000000000000000000021
:105730000000000000000000000000000000FFFF6B
:10574000FF0000000000000000000000000000005A
:105750000000000000002000023000061FF7FC00DF
:10576000140000080000000000000000000000001D
:105770000000000000000018000060000040000071
:105780004000002000001000000800000400000499
:1057900000000C00001000000000000000001FFFCF
:1057A00011223122512291221122112211221FFF96
:1057B00000000000000000000208223C23C822086C
:1057C0002228221D0202080C0870FF80080208012E
:1057D00008020FFC0000000002000A00727C124068
:1057E0001240FFFF12481244127802001FF000021C
:1057F0000001FFFE000000000040404030FE0300BA
:1058000000000200048008903088C484338B08B004
:1058100004C002000200000000007FFF44205A1074
:1058200061E4048808B014822481C7FE248014A097
:105830000890048C0400000008200620407E31807F
:1058400000227F12490A49FE4902490249FE490ADB
:105850007F1200220002000002000202420433F81C
:1058600000041102910A711211621F821142312249
:10587000D11A110201020000000100067FF8400069
:1058800048044408433040C043304C0C40007FF093
:10589000000C0002001F000002000A00727C12408F
:1058A0001240FFFF12481244127802001FF000025B
:1058B0000001FFFE00000000108110A61110FFE0A3
:1058C000120412030010102012C4FF0310C01000B5
:1058D0001FC4002300F0000060009000900067E00B
:1058E0001FF8300C200440024002400240024002F7
:1058F00020047808000000000002000C3FF02200A5
:105900002ABF2AA22AA2AAA27FE22AA22AA22AA205
:105910002FBF220022000000000100067FF8401087
:10592000446045807FFF448040404FFF4922492228
:1059300049224FFF4000000000001FFE3084D08449
:1059400010841FFE0500793F11221122FF2211222F
:105950001122113F010000002000220822712202C2
:10596000FA0422182FE0220022022201FA0223FC6C
:105970002000208020700000000002000200420091
:105980004200420052024A0147FE4A0052006200B1
:10599000020002800300000000010002000C003041
:1059A0007FC0400044004200418040007FFC000274
:1059B00000020002001E0000200225E3252A252601
:1059C000FD222524252C25E4200400010421084281
:1059D000108461080630000000020002000200028C
:1059E00000020002FFFE02020202020202020202A2
:1059F0000202000200020000210226422444244444
:105A0000F4482450246025FF24602450F4482444A2
:105A1000244425422602000010051FFD1FFD11052C
:105A200011051F8D0EF9007100000000000000003C
:105A300000000000000000001F1C1F1E1F1E1F1F73
:105A40001E1F1E1F645A0008000000203C000000BA
:105A50000C220008A05A00083C000020D4090000D5
:105A60001C220008B200001F9F5F3F080004E40CE6
:105A70000010302060705040C0D09080A0B0020470
:105A800006080000000001020304010203040607E7
:105A900008090000000000000000000000000000F5
:04000005080000ED02
:00000001FF
